:100000000010002011110000D1590000D559000046
:1000100039B90200D9590000E159000039B902008C
:1000200039B9020039B9020039B9020039B9020000
:10003000E55900008887030039B9020039B9020088
:1000400039B902007D47010039B9020039B902000F
:10005000BD3F0100690C0300650C03009D470100D2
:100060005D0C0300F9190000591B000039B90200AA
:10007000C50D000091B4020039B9020039B902007F
:1000800039B9020039B90200751B000039B9020004
:1000900039B9020039B9020039B9020039B9020090
:1000A00039B9020039B9020039B9020039B9020080
:1000B000D1470100610C03001D6C00000D480100D8
:1000C00039B90200356B010039B9020039B90200B3
:1000D00039B9020039B9020039B9020039B9020050
:1000E00039B9020039B9020039B9020039B9020040
:1000F00039B9020039B9020039B9020039B9020030
:1001000039B9020039B9020039B902000000000013
:10011000013800D0FCE770472DE9F04F93B0CDE9EE
:100120000A329DED1C7BDDE91E530E9353EC172B19
:10013000CDE90801104619468DED067B209E2AF078
:1001400037FD80B1DDE90601C94B4FF0FF322AF0DF
:1001500057FD40B9DDE906014FF0FF326FF480131F
:100160002AF030FD80B10E9B2096CDE91E539DED07
:10017000067BDDE90A32DDE908018DED1C7B13B059
:10018000BDE8F04F00F08CB9DDE906010022002344
:100190002AF018FD002800F03681DDE906A303F1FE
:1001A000004BCBF30A5016F48063A0F2FF3008BF77
:1001B00006250F932AF02AFA9DA3D3E900232AF0FB
:1001C0008FFA9DA3D3E900232AF0D4F8CBF31304CC
:1001D000894644F07F518046A64B0022504641F4A8
:1001E00040112AF0C5F896A3D3E900232AF078FA43
:1001F00002460B46404649462AF0BCF82AF00AFD62
:1002000004462AF003FA90A3D3E9002380468946E6
:100210002AF066FA984B00222AF0ACF82AF0FAFC91
:100220008BA3D3E900230746494640462AF058FAF3
:100230008046384689462AF0E9F987A3D3E90023A6
:100240002AF04EFA02460B46404649462AF090F8FC
:1002500002460B46CDE90C232AF042FADDE90C23D5
:1002600080468946104619462AF084F8834BCDE92A
:1002700010010022404649462AF05CFB804B0022D8
:100280002AF078F802460B46404649462AF052FBCF
:100290007C4B00222AF06EF802460B464046494647
:1002A0002AF048FBDDE90C238046894600204FF008
:1002B00080412AF05DF802460B46404649462AF046
:1002C00059F802460B46DDE910012AF033FB07F22C
:1002D000FF376D4B00222AF04DF800223B052AF033
:1002E000FFF952465B46804689462AF089FC002881
:1002F00040F08C80CDE90C8904F16303C72B34BF37
:100300000427052731051ED555A3D3E90023504600
:1003100059462AF06BFC002800F0828052A3D3E9F2
:100320000023504659462AF04DFC002878D0A542BB
:10033000C8BF2C1B4FF00007CCBF04F1FF350025D0
:1003400046F480663C460E9B9F4234BFA3EB0708F1
:100350004FF0000816F0020903D0002F18BF4FF02D
:1003600000083CB150465946DDE90C232AF0E2FA78
:1003700082468B46DDE90601002200232AF022FC9A
:1003800010B10BF100439B4626F40063CDE90383D3
:10039000CDE900ABDDE90A32DDE90801029500F0A4
:1003A0007FF802465FB316F0200F00F10105DDE98A
:1003B00009130CBF65204520089EB047052305930F
:1003C00000220A23002CCDE9023207F1FF374FEA61
:1003D000D473B8BF644201932A46DDE908010A9B41
:1003E000049700942FF03EFD0246B9F1000F06D0AD
:1003F0000B9BC41A0B9B1A190E9BA34246D810469E
:1004000013B0BDE8F08FDDE906ABCAE61C4B002255
:10041000404649462AF08EFA013CCDE90C016BE7D3
:10042000002D90D00F9B002B8DD0013D8BE700BF9E
:10043000FB799F501344D33FB3C8608B288AC63FD3
:1004400061436F63A787D23F71A379094F930A4035
:100450001655B5BBB16B0240EF39FAFE422EE63FAE
:100460002D431CEBE2361A3F0000000080842E4131
:10047000FFFFEF7F0000F83F0000E03F00002C404E
:1004800000002440000018400000F03FDDE909139F
:10049000089D2020A8470134ACE700BF0000000001
:1004A0002DE9F04F97B0DDE920ABCDE90501CDE9AD
:1004B0000723504652465B465946DDE92257249EA3
:1004C0002AF076FB70B90323CDE922762193B44B51
:1004D0002093DDE90501DDE9072317B0BDE8F04F02
:1004E0002FF0E0BB4FF0FF326FF4801350465946B7
:1004F0002AF068FB28B104232193CDE92276A94B89
:10050000E6E7A94B4FF0FF32504659462AF078FBF8
:1005100068B1A64A06F00403002B08BF0322A44BCF
:100520001CBF13460422CDE922762192D0E798A37E
:10053000D3E90023504659462AF062FB38B996A306
:10054000D3E90023504659462AF03CFB68B1DDE967
:100550000723DDE90501CDE92376CDE920AB22951E
:1005600017B0BDE8F04FFFF7D7BD0022002350467B
:1005700059462AF027FB002800F09A805B46524635
:100580000020002129F0F4FE012382468B460993C6
:1005900016F4806400F08E80092D40F28E800EAB40
:1005A000A5F10902002430210134202C03F8011B9D
:1005B000A5EB040901D09442F6D1594650462AF0E1
:1005C00029FB7C4B03EBC90393ED007B05468DEDC6
:1005D0000A7B2AF01BF802460B465046594629F082
:1005E000C7FEDDE90A232AF07BF802460B46CDE977
:1005F0000C232AF037FB804629F0F8FF02460B4611
:10060000DDE90C0129F0B4FE02460B46CDE90C23CE
:10061000694B00222AF0F4FA002851D008F10108B1
:10062000404629F0E3FF02460B46DDE90A012AF0C5
:10063000D3FA10B101354FF00008B9F1000F50D1D5
:10064000284629F0E3FF02460B465046594629F05A
:100650008FFE594B0022804689462AF0B3FA30B10A
:10066000554B0022404649462AF0CAFA10B1E80725
:1006700000D501350EAB1A190A21202C0AD095FBA2
:10068000F1F001FB1055303502F8015B01340546ED
:100690000028F2D106F00302012A5FD1002F5DD0BD
:1006A000099A12B916F00C0F00D0013F302244E035
:1006B00009906DE74FF006097FE7A94600247CE723
:1006C000DDE90C013C4B00222AF07CFA0028B4D171
:1006D000B8F1000F02D018F0010FAED008F10108F8
:1006E000ABE70EAB23440A21202C0DD0B8FBF1F070
:1006F00001FB10823032B8F1090F03F8012B09F128
:10070000FF3904F1010411D8A1440EAA3021202C94
:10071000B0D0A14504F101030AD11C4609F15803E8
:100720000DEB03092E2309F8203CA3E78046DBE705
:10073000A1541C46EBE71A550134A7420ED9202CD0
:10074000F9D1CDE90034CDE90276DDE90723DDE911
:1007500005012FF0A7FA17B0BDE8F08F202CF0D0DC
:10076000099A3AB104F158026A442D2102F8201C7A
:100770000134E6E7710704D504F158026A442B21DD
:10078000F4E73207DDD504F158026A442021EDE791
:100790000000000065CDCD410000000065CDCDC159
:1007A000DBD50300DFD50300FFFFEF7FD2D50300C9
:1007B000D7D50300E8D503000000E03F00000000AB
:1007C00070B58EB02C22002103A833F0F1FB642316
:1007D0004FF00232CDE9052308930B238DF8343016
:1007E000514B1B880121D8078DF8101000F196801D
:1007F000084616F0ADFB4D4B4D494E484E4C0A2273
:100800001A704FF42873ADF8123015F061FC2060B7
:1008100020B94A4840F25B2104F0D8FF2068052146
:1008200030F06CFC20B1454840F26B2104F0CEFF63
:10083000206800F0D3FA424B2068196830F097F82E
:1008400017F068FA0C256843099017F063FA6843BB
:1008500007900DEB0501206810F088FF20B13748A4
:100860004FF4207104F0B2FF36492068002230F0C6
:1008700009F920B1314840F2822104F0A7FF324E3D
:10088000324D96F9000040F203532B807F284FF041
:100890000503AB7001D116F0B9FC3378EB7017F09B
:1008A00039FA00EB80008000A88017F033FA0023AB
:1008B000C000E880AB604FF0FF3019A3D3E90023FC
:1008C0004FF0FF3116F000FD2149206830F0EBFCBD
:1008D000206802A930F0B0F820B1184840F2BB21DE
:1008E00004F074FF042220680DEB020130F02DF8B3
:1008F000042804D0114840F2BE2104F067FF01A98A
:10090000012030F004FE05F0A7F8012017F0A0FC4C
:100910002BF044FC17F0C6FC16F09EFB0EB070BD29
:100920000A0020FF42030000A44200206645002088
:10093000796F0100D8120020C439002062F403004E
:10094000781100207445002028160020B8390020B6
:10095000197101000348044B834202D0034B03B1D9
:100960001847704778160020781600200000000015
:100970000548064B1B1AD90F01EBA301491002D001
:10098000034B03B1184770477816002078160020F3
:100990000000000010B5064C237843B9FFF7DAFFDA
:1009A000044B13B10448AFF300800123237010BD42
:1009B000244300200000000028F8030008B5054B80
:1009C0001BB105490548AFF30080BDE80840FFF7BB
:1009D000CFBF00BF000000006819002028F8030006
:1009E000A3F5803A704700BF174B002B08BF134B8D
:1009F0009D46FFF7F5FF00218B460F461348144A2A
:100A0000121A33F0D5FA0E4B002B00D098470D4B3D
:100A1000002B00D098470020002104000D000D4855
:100A2000002802D00C48AFF300802AF081FC20009F
:100A300029002AF0EDFC2AF0ADFA00BF0000080002
:100A400000000000000000000010002078160020C8
:100A5000CC450020000000000000000008B503485D
:100A60002BF044F8BDE8084009F080BF607B03002C
:100A700013B50B4B0190044600930A4A0A4B01211F
:100A8000042008F0DBFF44B908482BF029F8084897
:100A900002B0BDE810402BF026B802B010BD00BF78
:100AA0005FD003008540030080400300487B0300C3
:100AB000607B030006291FB516D1AAB9402B13D1BC
:100AC000012300930DF10F032DF054FF024688B966
:100AD0009DF80F3053B14FF6FF73084819462BF0BD
:100AE000DCF806482AF0FCFF04B010BD03482AF0E9
:100AF000FAFFF9E701482AF0F9FFF5E7787B0300F0
:100B000008B5042201230E21092002F001FA012375
:100B100000210422082002F0FBF906482AF0E3FF36
:100B200005482AF0E0FFBDE808400449044808F001
:100B3000CDBC00BF607B0300487B03005D0A000062
:100B40008019002010B504462AF03DFF70B1084B13
:100B50009C4203D10748FF212CF0BAFC064B9C4273
:100B600004D1BDE8104005482AF0C0BF10BD00BF49
:100B7000307B030080190020187B0300787B030082
:100B800008B504482AF0AFFFBDE8084002482AF043
:100B9000A7BF00BF607B0300487B030030B50A4C51
:100BA0000A4B22680A4D1A6085B00A4B2B600A4B2B
:100BB000019304F05DF82B68029001A9206803936B
:100BC0002BF0E1FC05B030BDA41000207C270020F4
:100BD00078270020981000207D7A0300014B1868C8
:100BE0002BF0E5BCA410002038B5084D04F040F807
:100BF0002B680446D3F8B00204F02EF828682BF0D6
:100C0000E9FC2046BDE8384004F026B8A4100020D6
:100C100038B501F017FC0E480E4C012101F09CF88C
:100C200001221146002001F071FB0225012211462C
:100C3000C4F88050002001F069FB0122C4F8845000
:100C40001146002001F062FBC4F88850002038BD36
:100C500030253E0000400E4008B5224B01225A6468
:100C600002F0CEFBA0B9204B4AF6E852C3F890211F
:100C7000D3F8982142F00402C3F89821C3F89001F8
:100C8000194AD2F8643143F40053C2F8643101E0E8
:100C90000128F5D0154A136A23F4441343F488134A
:100CA0001362A2F58042136843F48073136003F06B
:100CB000B5FF00F089F903F04FFF03F09BFF03F04D
:100CC00061FFFFF7A5FF2BF0E9FF00F06FF900F0DF
:100CD000B9FA04F0B1FA00F05BFFBDE8084005F096
:100CE00009B900BF00000E4000300E4000400E4029
:100CF00030B5204D0FCD97B00FAC0FC495E807006D
:100D00001D4B84E807001D4ACDE903234FF0807393
:100D1000059303F1022306934FF0F0511E23CDE912
:100D200007130E2200210DF12E0033F041F9144B70
:100D30004FF44020CDE909030C238DF82C300D230E
:100D40008DF82D300F4B0C9320230D9301238DF83C
:100D500039300D4B00930FAA03AB09A90B4804F0DF
:100D600097F9002104464FF4E1302AF0D7FD2046E0
:100D700017B030BDFC7A03000042040000000140BF
:100D80001C000140254300205C1C0020B01C0020FA
:100D9000012905D8034B1B68186808B1436A184736
:100DA000704700BFA810002008B50449044805F0AA
:100DB0004FF9BDE80840FFF79BBF00BFAC10002013
:100DC000D41C002001482CF0FFB800BFB01C00204C
:100DD000014B1A6A18681047B01C002008B510F0C3
:100DE000F3FC024B00221A7008BD00BF45430020EF
:100DF00008B504482AF0E2FDBDE8084002482AF0A0
:100E0000DDBD00BF307B0300187B030008B504483C
:100E10002AF063FEBDE8084002482AF05EBE00BF2B
:100E2000607B0300487B030001482AF056BE00BFE8
:100E3000787B03001FB50849034602AA08680979B0
:100E400002908DF80C10009205210022012007F07D
:100E500055FC05B05DF804FB987B03001FB50849FD
:100E6000034602AA0868097902908DF80C100092D6
:100E700005214222012007F041FC05B05DF804FB8A
:100E80009E7B03001FB50849034602AA086809793A
:100E900002908DF80C10009205214022012007F0ED
:100EA0002DFC05B05DF804FB987B03001FB50949D4
:100EB000034603AA08888978ADF80C008DF80E1057
:100EC000009206214222012007F018FC05B05DF8CF
:100ED00004FB00BFA47B03001FB5094903AA034616
:100EE000009208888978ADF80C0005228DF80E1064
:100EF0000120114607F002FC05B05DF804FB00BFBD
:100F0000A87B03000A4601492AF04DBC668703000E
:100F10000A4601492AF047BC638703000A46014993
:100F20002AF041BC608703000A4601492AF03BBC15
:100F30005D8703000A4601492AF035BC5A87030041
:100F40000A4601492AF02FBC578703000A46014987
:100F50002AF029BC528703000A4601492AF023BC23
:100F60004D8703000A4601492AF01DBC488703004B
:100F70000A4601492AF017BC438703000A46014983
:100F80002AF011BC3E8703000A4601492AF00BBC37
:100F9000338703000A4601492AF005BC2C87030069
:100FA0000A4601492AF0FFBB2787030008B5054818
:100FB000012100F0D1FE2AF033FABDE8084000F02C
:100FC0001DB800BF00350A000148012100F0C4BE71
:100FD00000350A0007B508202AF068FD064B0222FA
:100FE0006846CDE900232AF05DFC082003B05DF8D7
:100FF00004EB2AF066BD00BF006A18102DE9F0432B
:101000003B4D3C4FDFF80091DFF800810FCD89B0F8
:1010100001AC0FC495E80700374D84E80700374856
:10102000012100F099FE38460121012400F094FED0
:10103000334B039301A928468DF812402BF05EF83C
:101040002346042200210A2001F062FF22460023E9
:1010500002210A2001F05CFF23460422072105201B
:1010600001F056FF0422214623460A2001F050FFDA
:10107000244BAB670B236B6702264FF4487006F0D6
:101080008FF8C9F8EC61142006F08AF8C8F8EC6112
:10109000232006F085F8C9F8EC61B92128462BF029
:1010A0006CF800231A461946C8F8EC610A2001F0D2
:1010B0002FFF00231A4631460A2001F029FF23465C
:1010C00000220721052001F023FF234600222146AC
:1010D0000A2001F01DFF284602F0EAF90021A96765
:1010E0003846696700F038FE09B0BDE8F08300BFFC
:1010F0006C870300006204000008014000350A000C
:1011000000127A001E1D001200A0004400A000463C
:1011100008B500F083F8124B12498B4212D3124BE0
:10112000124900208B4218D3FFF75EFC186850F874
:101130002240586840F82240013298688242F5D334
:101140000C33EAE70022F8E71C6844F82200013279
:101150005C68A242F8D30833E4E70022F8E700BF56
:1011600030F803003CF803003CF803003CF80300AF
:101170000048704700F04902104AD2F8943003F05A
:101180000703023B032B13D8DFE803F00C14020E15
:101190000B4B1B68D2F80001C0F304200130B3FBF5
:1011A000F0F07047074BF4E7074B1B685B08F1E76B
:1011B000054BEEE74FF40043ECE700BF00400E4064
:1011C000481100204C1100204011002008B5FFF705
:1011D000D3FF054BD3F80831C3F308230133B0FB29
:1011E000F3F0024B186008BD00400E40441100208F
:1011F000014B1868704700BF4C110020054B186068
:10120000054BD3F8943003F00703022B01D1FFF70D
:10121000DDBF70474C11002000400E40044B054AD2
:101220009A60D3F8882042F47002C3F8882070478F
:1012300000ED00E000000000014B1868704700BF9F
:10124000481100200F4BD3F82838A3F17E62A2F595
:101250008432B2F5104F10B511D219680A4A914282
:101260000DD10A4C227812F0FD0F01D0002010BDE4
:10127000DB6998470028FAD101232370F6E74FF481
:101280008170F4E70000E10F07B0CD5E4643002017
:1012900070B5D0B1C9B10E4E431E013913F8014FDC
:1012A000325D02F00302012A11F8012FB55C05F04E
:1012B0000305204608BF04F12000012D08BF20329D
:1012C000801A01D1002CE9D170BD0120FCE700BFDC
:1012D00025F7030037B5046801210546124800F0E0
:1012E0003BFD002361792079012201F011FE617933
:1012F00020792AF06DFBB0FA80F35B092370A379A3
:10130000022B0ED100F0CCFB084960792A4600F090
:10131000F1FB0123617902462079CDE9003301F028
:10132000B3FD002003B030BD00350A00EBB9020068
:1013300008B52948012100F00FFD012304220221F4
:10134000052001F0E5FD002001F092FD234B012274
:10135000C3F810281146042000F0D8FF204800F000
:101360004DFE204BD3F8F02042F00102C3F8F020EC
:10137000D3F8FC2042F08072C3F8FC20A3F55D4353
:10138000194A1A6000F5D520184B00F2FC40B0FB5A
:10139000F3F0174B013802221861C3F8F0204FF424
:1013A0008072C3F804234FF06043124AC3F8B02F91
:1013B000114AC3F8802ED3F8002E42F48072C3F88D
:1013C000002EFF2283F82020D3F8002E22F4807212
:1013D000C3F8002E002008BD00350A00008014422A
:1013E00006000E0000ED00E0FF030040F8590D007C
:1013F000000004E055CEACC5090001004FF0604389
:1014000030B5D3F8802ED20715D501240B4D84407A
:10141000D5F8FC2042F08072C5F8FC20D3F8002EED
:101420002243C3F8002E53F82020002AF0D003F8FE
:101430002010002030BD1120FCE700BF00ED00E0CF
:101440002DE9F0414A4B036004464A4B436088B0A3
:101450004948012100F080FC2369484A93422ED07C
:101460002AD8A2F5005293422BD0454D02F5806256
:10147000934218BF11252846012100F06DFC414B15
:1014800020694FF40072CDE90123002303933B4B05
:101490009842A36902D03C4A904214D1012B17D83C
:1014A0003548002100F058FC2846002100F054FC8B
:1014B000012008B0BDE8F081334A344DD8E7344DFF
:1014C000D9E7344DD7E7023B4FF6FD729342E7D898
:1014D000A37B217A003B18BF012301AA8DF80E30AF
:1014E0002AF0A0FD2C48012100F036FCA37BA17A54
:1014F000607A042201F00CFDD4F81080277AE67A95
:10150000FF002AF021FCD8F83420BE401F235640AB
:10151000BB4033405340C8F834302AF019FC6369AB
:1015200033B1284600F06AFD6369B0FBF3F3013B79
:10153000A2692569013AB3FBF2F35343934238BFE2
:101540001346EB610D2200210DF1110032F030FD48
:10155000012304A928468DF810302AF032FD2046D8
:10156000A1892AF0D9FA2AF0CFFA0020A1E700BF1A
:1015700019BB0200F3BA02004041050000A001407F
:10158000001204000001030000A401400032040026
:10159000002204000002040000350A0010B50121F9
:1015A0000446094800F0D8FB0848012100F0D4FBAC
:1015B000A37820786178B3FA83F35B09042201F001
:1015C000A7FC002010BD00BF4041050000350A0007
:1015D0002DE9F04F9A46554B85B01B78DDF83C90CD
:1015E0009DF844B0DDF8508006460F461546002BA6
:1015F00000F09680072A00F295800E9B002B00F0E9
:101600009180B9F1000F00F08D80129BB3F5006F4F
:1016100000F38880012803D1109B002B00F082800A
:10162000434B03EB05131B7B002B7DD0414C102259
:101630000021684632F0BCFC04EB451410229FBB2D
:101640003946204632F0B4FC43F210036380BBF10C
:10165000000F03D1E37843F00303E370354A0E9B98
:10166000CDF800A002EB451CCCE90193129B581E5B
:101670009DF84C30690103F00303C0F30A009B0698
:1016800043EA001E53582C4818404EEA0003012E2E
:10169000535017D0B8F1000F2ED19CF8023068F3E8
:1016A00004138CF8023027E00021204632F080FC41
:1016B0004FF444736380BBF1000FCFD1E37843F064
:1016C0003003CAE71323CCF80C309CE80F000CF170
:1016D000100E8EE80F00DCF81C20109BCCF81430A4
:1016E0006FF0030161F39F02012FCCF81C2003D19E
:1016F000CCF81890CCF804300D4A290102EB051300
:1017000042F80180159A5A60002728462246694609
:101710009F605E7301F080FC384605B0BDE8F08F35
:101720000648FAE70648F8E70648F6E74743002088
:10173000DC1D0020DC1C00200F80FFF3028000F085
:10174000018000F0078000F038B5124B1B78054689
:10175000DBB1E0B12AF003FB0F4A00231146147BF2
:1017600054B92B601A0101EB031301258C501D7332
:101770002AF0FBFA204638BD0133082B02F1100293
:10178000EDD12AF0F2FA0548F5E70548F3E70548F8
:10179000F1E700BF47430020DC1D0020048000F07B
:1017A000028000F0018000F038B52AF0D8FA0C4A27
:1017B00005460023147B6CB90133082B02F110029B
:1017C000F8D101F0DFFB074B28461C702AF0CDFA58
:1017D000204603E028462AF0C8FA034838BD00BF77
:1017E000DC1D002047430020058000F00D4B1B78D6
:1017F00010B5044693B1072812D82AF0B0FA0A4B64
:1018000003EB04131A7B2AB100241C732AF0ADFAEF
:10181000204610BD2AF0A9FA0448FAE70448F8E780
:101820000448F6E747430020DC1D0020068000F056
:10183000028000F0018000F013B5164B186801908B
:1018400000238DF804302AF08AFA134B1C7824B157
:101850002AF08BFA114802B010BD01221A702AF04A
:1018600084FA0F4B1C731C7783F82C4083F83C40A0
:1018700083F84C4083F85C4083F86C4083F87C40EC
:1018800004230DEB03008DF8073001F09BFB20468D
:10189000E1E700BFD887030047430020038000F042
:1018A000DC1D00200A4A127808B55AB107280BD867
:1018B000084A02EB00131B7B43B1002101F078FBC7
:1018C000002008BD0448FCE70448FAE70448F8E7AC
:1018D00047430020DC1D0020028000F0018000F062
:1018E000078000F00A4A127808B55AB107280BD8C9
:1018F000084A02EB00131B7B43B1012101F058FBA6
:10190000002008BD0448FCE70448FAE70448F8E76B
:1019100047430020DC1D0020028000F0018000F021
:10192000078000F00A4A127808B552B107280AD891
:10193000084A02EB00131B7B3BB101F0BDFB00200A
:1019400008BD0548FCE70548FAE70548F8E700BF89
:1019500047430020DC1D0020028000F0018000F0E1
:10196000078000F00D4B1B7893B1072812D889B17E
:101970000B4B03EB00131B7B73B10A4B1A6E012355
:101980008340134214BF012300230B7000207047D3
:101990000548704705487047054870474743002091
:1019A000DC1D002000200E40028000F0018000F0CD
:1019B000078000F00B4A127810B50C4662B1072878
:1019C0000CD859B1084A02EB00131B7B43B101F05C
:1019D00089FB2070002010BD0448FCE70448FAE7AA
:1019E0000448F8E747430020DC1D0020028000F097
:1019F000018000F0078000F02DE9F041DFF86480FD
:101A0000D8F86070D8F86C301F4000D5FEE7134C52
:101A100001260025374218D02368C8F86860A3B1B2
:101A2000A16862680131A16028469847637B012B59
:101A30000BD150B90A4B03EB45131A7B60F34102FB
:101A40001A731A7F60F341021A770135082D4FEAA5
:101A5000460604F11004DDD1BDE8F081DC1D002054
:101A6000DC1C002000200E4070B50C4E0446012501
:101A700004B970BD94FAA4F0B0FA80F006EB00123D
:101A800005FA00F324EA03045368002BF0D0117B1D
:101A900011B191689847EBE79847E9E75C1E002091
:101AA00008B5122000F086FD28B1084B4FF48022C3
:101AB000C3F880211A600A2000F07CFD28B1034B96
:101AC0004FF48062C3F880211A6008BD00E100E095
:101AD00038B505460C462AF042F9054B03EB0513D1
:101AE00000225C601A73BDE838402AF03EB900BF9E
:101AF0005C1E0020F8B505460E4617462AF02FF961
:101B0000134BD3F8282422FA05F3DB0705F0FC0178
:101B10002C4612D500230133DBB2042B04D1FF2461
:101B20002AF023F92046F8BDEC1804F003040C4415
:101B300022FA04FC1CF0010FEDD1FF2CF0D0054B74
:101B400003EB04130122C3E901671A73E8E700BF3E
:101B500000A000405C1E0020054BD3F82804D3F8F9
:101B60001C24104000F05530C3F82404FFF77CBF5C
:101B700000A00040054BD3F82804D3F81C241040E3
:101B800000F0AA30C3F82404FFF76EBF00A00040A5
:101B9000024B1968024B18680FF084B950110020ED
:101BA0007011002070B59400224605460E462AF0BA
:101BB00006FA431C0AD058B922463146284632F06C
:101BC000CDF90028034808BF002070BD0248FCE79B
:101BD0000248FAE710E000F021E000F024E000F015
:101BE00010B5044601F02EFB431C10D088B901F05B
:101BF0000FFC20F0030023462044984201D100202E
:101C000010BD53F8042B0132F7D00348F8E703481E
:101C1000F6E70348F4E700BF0EE000F021E000F033
:101C200024E000F008B52AF08FF8014B186008BDD9
:101C30004C270020014B18682AF08AB84C27002056
:101C40000C4B984205D90C4B984210D80122012325
:101C500001E00022134609490B640949D1F800311B
:101C600023F0807343EA0263C1F800317047022217
:101C7000EDE700BF0048E8010090D0030000C84332
:101C800000400E400F4B5B680F4B30B500221C46E6
:101C9000C9B21D798D4202D11D6885420DD2013233
:101CA000052A03F10803F4D10321064A536823F0FF
:101CB000407343EA0163536030BD04EBC2046179B1
:101CC000F3E700BF00000E401C88030038B5074C46
:101CD00041F67133256C2364FFF74AFAADB2002157
:101CE000FFF7D0FF0DB10023236438BD00000E4084
:101CF000044BDB6B5B0604D4034AD2F8C830002BDC
:101D0000FBD1704700300E400000C64308B5FFF716
:101D1000EFFF024B5868C0F3014008BD00300E4091
:101D2000044BD3F84421D20703D4D3F84021104206
:101D3000FBD1704700400E4038B5064C256C41F68B
:101D400071332364ADB2FFF79DFF0DB1002323640F
:101D500038BD00BF00000E4038B5C0F30323013B7F
:101D6000092B11D8DFE803F0052710102B221D10D6
:101D70001511154DC0F3043405F1424505F58015E4
:101D800004EBC5008000016038BD104DC0F3043481
:101D9000F2E70F4DC0F304344FF48030FFF7C0FF7B
:101DA000EAE7C0F304340B4D1020F7E7C0F3043426
:101DB000094D0120F2E7094DC0F30434DCE7084D7A
:101DC000C0F30434D8E700BF00400E4050410E403D
:101DD000F0400E40E8400E40E0400E40C0400E4053
:101DE000B0400E40C0F30313013B092B2AD8DFE8B3
:101DF00003F0050B0F1929291F23374B274BD3F865
:101E00000001C0F304207047244BD3F81401F8E715
:101E1000224BD3F80031C3F3006301330120984013
:101E2000013870471D4BD3F80C01C0F308207047F0
:101E30001A4BD3F80801F8E7194B984204D0194B14
:101E4000984207D000207047144BD3F8203103F09C
:101E50000F03E3E7114BD3F82031C3F30113DDE7A0
:101E6000114B98420CD003F5B01303F58053984200
:101E7000E8D10A4BD3F82831C3F301230433CDE76B
:101E8000064BD3F82831E8E7084B9842DAD1034BE8
:101E9000D3F8300100F00300704700BF00400E404F
:101EA0008006160080162E0090171A00A009140054
:101EB00000F00F000138072850D8DFE800F00415C3
:101EC000244F34384F402B4BD3F8943003F00703A2
:101ED000023B052B06D8DFE803F049243F03054306
:101EE0000B20704705207047224BD3F8800000F08C
:101EF000070002283DD0042836D0012808BF03205F
:101F000018BF012070471B4BD3F8843003F0070340
:101F1000013B032B03D8DFE803F0041F2527012032
:101F2000704703207047134BD3F88800DFE7114B4D
:101F30001B6F13F0010F0CBF0720092070470D4BDA
:101F4000D3F85C3103F03003202B0FD0302B0FD0AF
:101F5000102B08BF0720D3E70220704700207047EE
:101F60000C207047062070470A20704704207047F5
:101F70000820704700400E4008B50146FFF798FF63
:101F80001A4B994211D01A4B994212D0194B9942CF
:101F900004D1194BD3F8800000F007000138032862
:101FA00021D8DFE800F00A0E1612134BD3F8840094
:101FB000F2E7114BD3F88800EEE7BDE8084029F0BE
:101FC000BCBCBDE80840FFF737B9BDE8084029F0C0
:101FD000B7BCFFF7D1F8084BD3F80031C3F3006367
:101FE0000133D84008BD0020FCE700BF03002000FB
:101FF0000500240002001E0000400E4000F478138B
:10200000B3F5B01F10B5044674D025D8B3F5402FF2
:102010005ED010D8B3F5802F49D005D83BB1B3F5C9
:10202000003F4FD0002010BDB3F5202FFAD1BDE8FE
:102030001040FFF7A1B8B3F5801F00F08480B3F51E
:10204000A01F4DD0B3F5602FECD14A48FFF730FF09
:10205000072878D00928E9E7B3F5381F53D013D8FB
:10206000B3F5001F58D00AD8B3F5D01F56D0B3F53A
:10207000F01FD7D14048BDE81040FFF77DBFB3F552
:10208000101FCFD13D48F6E7B3F5481F4DD0B3F54B
:10209000781F65D0B3F5401FC4D13948FFF76CFFF6
:1020A000384BD3F82831C3F30123043320E0FFF782
:1020B00063F8344BD3F80C31C3F308230133B0FB7E
:1020C000F3F0B0E7FFF758F82E4BD3F80831F3E7F9
:1020D000FFF752F82B4BD3F81431C3F30423EDE789
:1020E0002648FFF749FF274BD3F8303103F00303AD
:1020F000D84098E72048FFF73FFF224BD3F8203124
:1021000003F00F03F4E71C48FFF736FF1D4BD3F82D
:102110002031C3F30113EBE71948ACE71848FFF788
:102120002BFF184BD3F82831F3E71748FFF7C0FE11
:10213000072808D0082809D004287FF473AFBDE829
:102140001040FFF755B8114B18686CE7FFF714F80B
:102150000C4BD3F80031C3F3042303FB000062E708
:10216000FFF70AF80146204629F0E9FDB1FBF0F03F
:1021700059E700BF06000E0002001E000500240003
:102180000300200000400E40B8003200741100200F
:1021900010B5FFF79BFD094B07225A67FEF7ECFFCE
:1021A000FFF74EFDFFF712F80446FFF7AFFD0146BB
:1021B0002046BDE81040FFF7BFBD00BF00400E4005
:1021C000014B1880704700BF96150020014B188006
:1021D000704700BF9415002010B5042813D8DFE81D
:1021E00000F047032F132100294AC1F30801D2F858
:1021F0006838002BFBD1274A136A23F4FF7323F0BE
:1022000001030B43136210BD214A01F07F01D2F894
:102210006038002BFBD11F4A136923F07F030B4367
:102220001361F0E71A4A01F07F01D2F86438002BFD
:10223000FBD1184A936923F07F030B439361E2E7D4
:10224000144AD2F89030536A23F0300343F010035D
:102250005362146B104BC1F3C31003300F2803EA11
:10226000040328BF0F200B4343EA00731363CAE73C
:102270004F29074A28BF4F21D2F87438002BFBD1D1
:10228000044A936B23F07F030B439363BBE700BFC8
:102290000020C84300400E4000F8FF0F104A536A68
:1022A00013F0300F18D0202913D0302914D0002972
:1022B0000C4B08BF4FF44003D2F8901033EA0101F1
:1022C000FAD15B0246BFD2F8A000C0F38020012003
:1022D00070474FF40003EFE74FF44003ECE700BF13
:1022E00000400E40FF33E10702280AD129B1064B16
:1022F0004FF48060C3F8A800596612B10220FFF7BE
:10230000CDBF0120704700BF00400E400428F8B543
:1023100048D8304B13F800C02F4B1D5C2F4B33F8BF
:1023200010702F4B33F810402E4B002940D002285C
:1023300039D15C6A14F0300F35D12B4CE46B5C6AF8
:10234000E40705D55E6A26F0300646F010065E62A8
:10235000264C244B25441F66AD002B68002BFCD077
:1023600002B36444A4002368002BFCD0022819D1D6
:10237000C1B11C4D696A11F0010116D00122202162
:10238000FFF7B2FFD5F89C60012200210220FFF781
:10239000BDFFC6F30A010220FFF71EFF2F66236868
:1023A000002BFCD0F8BD0021D2E7FFF777FFE9E76B
:1023B00001211C66A940D3F890000842FBD1002AF5
:1023C000F0D00123074903FA0CF3D1F890201A4208
:1023D000FBD1E7E717880300128803000888030091
:1023E000FE87030000400E4000300E408004F210D3
:1023F00010B50246B8B901221146FFF787FFFFF773
:1024000065FC0F4B04225A67FEF7B6FEFFF718FC77
:10241000FEF7DCFE0446FFF779FC01462046BDE8E6
:102420001040FFF789BC012807D10146FFF76EFF76
:10243000FFF74CFC024B0322E5E7FFF747FCE3E71D
:1024400000400E4038B5FEF7D3FE0021044600F0F0
:10245000B7FA1248FFF7F4FB012211460220FFF7FA
:1024600055FFFFF733FC0CB1FFF742FC0C4B022287
:102470005A67FEF781FEFFF7E3FBFEF7A7FE05466E
:10248000FFF744FC01462846FFF756FC2CB92046CE
:102490000121BDE8384000F093BA38BD0148E80199
:1024A00000400E40012210B511460320FFF72EFF19
:1024B000FFF70CFC084B05225A67FEF75DFEFFF79D
:1024C000BFFBFEF783FE0446FFF720FC01462046D3
:1024D000BDE81040FFF730BC00400E4010B5044688
:1024E0001120FFF7E5FC002101220220FFF70EFF7B
:1024F000184A217C536A23F00103022908BF43F0E4
:1025000001035362144B2178C3F8A014637AA188A5
:1025100043EAC123D362136BA07A217A03F07F636D
:102520000343E08843EAC02343EAC11303310F2980
:1025300028BF0F2143EA01731363A37B617B1B0157
:1025400043EA0133E17B0B43217B43EA01435363BD
:1025500010BD00BF00400E400000C84338B50E4D0E
:102560000E4C01461120FFF7A3FCAA6B4B781440D8
:102570000A78144344EAC3248B7844EA0364CB7892
:1025800044EA0324AB6BA34205D000210122084694
:10259000FFF7BCFEAC6338BD00400E4080E4FFF89E
:1025A000034B5868C0F30800003818BF012070477B
:1025B00000ED00E04209054B53F8223000F01F0007
:1025C00023FA00F0C04300F00100704700E100E092
:1025D000034BD86B80F04000C0F38010704700BF01
:1025E00000300E4042EA0322B2F5007F10B5194CCC
:1025F00029D00AD8B2F5807F22D040F201139A4246
:1026000015D062B9D4F81C320BE0B2F5407F1DD072
:1026100040F201339A4210D0D4F8283201E0D4F8C5
:102620002432C3F30722DBB203600A6010BDD4F882
:1026300024321A0EC3F30743F6E7D4F82832F8E73A
:10264000D4F81C32F5E7D4F82032EAE7D4F8203287
:10265000EFE700BF0081E00F08B5FFF7B9FF20B139
:10266000024AD2F8C830002BFBD108BD0000C64397
:1026700008B5FFF7ADFF80B1FFF7EEFF074B196814
:102680005A68C1F30121C2F3014291421A688CBF1A
:1026900042F0100222F010021A6008BD00300E4015
:1026A000064B1B68DB0608D5054B1B69C3F30443C7
:1026B000082B02BF034B044A1A60704700300E40DB
:1026C00000400E4040110020C0EA210170B5FFF724
:1026D0007FFF38B12D4B1A781023C2F102029340CC
:1026E0002B4A13612B492C4DD1F8804145F60E033E
:1026F000C1F880312B6823F0AA03DB05DB0D0B66E4
:10270000FFF7AAFF224B1B68D80604F0010415D579
:10271000D1F84031DA01FBD4204B1B680B61204B10
:102720001B78052B0AD11F4B1E68FFF795FF184B2E
:1027300059683046C1F30141FFF7FEFA184B1B7888
:10274000023B0A2B0AD8DFE803F00615170909092E
:102750000909091A1D000020FFF74AFE2B68DB0754
:102760005EBF0C4B02221A661CB10A4B0022C3F852
:10277000802170BD0120EFE7FFF764FEEEE7FFF771
:1027800091FEEBE7FFF704FDE8E700BF48430020B8
:1027900000300E4000400E405427002050270020FB
:1027A000494300204011002010B50B4C0B4BD4F8CE
:1027B00090201A601120FFF77BFB094B1870FFF780
:1027C0004BFF084B084A5B68C3F301431370074B88
:1027D00022691A6010BD00BF00400E40542700203F
:1027E0004943002000300E4048430020502700207D
:1027F000064942780B6823F4407343EA0223022A15
:102800000B6004BF024B5B6A704700BF00300E4094
:1028100000400E4010B5044608B1FFF7C5FFFFF7B2
:1028200027FF144A136943F00403136129F0B1FB35
:1028300029F0B0FB104B114AC3F8242403F55923A7
:102840001B68DB060ED529F07FFA31F005FC29F074
:102850007FFA29F0A0FB03F0C7FD2CB1BDE81040C2
:10286000FFF734BF30BFF4E7FFF71AFFBDE81040B1
:10287000FEF7ACBC00ED00E000A000400000FFFF50
:1028800010B5044608B1FFF78FFFFFF7F1FE1A4BB2
:10289000D3F8802145F60E01D207C3F8801148BF56
:1028A00000224FF42071196648BFC3F88021134AF3
:1028B000136943F004031361114B124AC3F8242433
:1028C00029F067FB104B1B68DB060CD529F03CFA9E
:1028D00031F0C2FB29F03CFA03F086FD2CB1BDE8D3
:1028E0001040FFF7F3BE30BFF6E7FFF7D9FEBDE8B3
:1028F0001040FEF76BBC00BF00400E4000ED00E052
:1029000000A000400000FFFF00300E400E4A037997
:10291000916921F03F010B43017843EA810341783B
:1029200043EA4103817843EAC103C178012908BF22
:1029300043F0010393611368417923F4403343EA80
:1029400001431360704700BF00300E402DE9F04195
:1029500004460D46FFF73CFE60B3DFF86080FFF7EA
:102960007BFED8F80430C3F301439C4222D0124BC3
:10297000D3F80031FEF700FC022C07464FF010069A
:1029800009D12146FFF7D8F9C8F8106095B1BDE824
:10299000F041FFF761BEC4F102039E40C8F8106029
:1029A0000DB1FFF759FE2CB921463846BDE8F0417C
:1029B000FFF7C2B9BDE8F08100400E4000300E4084
:1029C00038B505460C46FFF703FEB8B145B90C4BC8
:1029D000D3F80051FEF7D0FBC5F3042505FB000535
:1029E000084B1B7821463BB1074B9D4204D802207F
:1029F000BDE83840FFF7AABF0020F9E738BD00BFA7
:102A000000400E404A430020002D3101034B027864
:102A10001A7001210020FFF7D3BF00BF4A430020F6
:102A2000234B4AF6E85210B5596B5A639A6FD20796
:102A3000FCD41B6C13F0030306D01E4A01249842F9
:102A4000C2F8B44A1AD110BDA0B1431E012B17D849
:102A5000174A4FF40023D362936FDB07FCD4136C47
:102A600023F0030343F001031364114A536A1C0368
:102A7000FCD505E00F4BC3F8B40AE4E7032BE4D020
:102A80000B4B9A6FD207FCD41A6C22F0030202435C
:102A90001A649A6F12F00102FBD10038054C18BF7E
:102AA00001200129C4F8B40A08BF5A63CBE700BF6C
:102AB00000300E400000C6432DE9F04F00238BB0DC
:102AC000CDE90433CDE90633CDE90833A0F5E16360
:102AD000B3F5966F05460191934603D900200BB0DC
:102AE000BDE8F08F624BDFF88C81D3F81842B0F567
:102AF000E16F15BF4FEA146AC4F3072AC4F3074411
:102B0000E4B20694CDF824A0D8F84C60C6F3017660
:102B10008CBF01220022334607A904A815BF4FF439
:102B2000E1674FF496674FF496694FF41679039274
:102B3000FFF758FDD8F8EC30039AC3F3012308A936
:102B400005A80293FFF74EFDA5EB070CAAEB0402C4
:102B50000CFB02F2B2FBF9F214445445079F0498AF
:102B6000089A0599BAD8A2EB010E0CFB0EFEBEFB2B
:102B7000F9FE11EB0E012CBF4FF0010E4FF0000ECD
:102B80008A42ABD3BEF1000FA8D13A1A0CFB02F275
:102B9000B2FBF9F280182CBF0122002287429DD39C
:102BA000002A9BD1029BBBF1000F0FD0D8F85C200C
:102BB000B5F5E16722F4FE4218BF012722F00202B8
:102BC00042EA470242EA0422C8F85C20019A0AB9A4
:102BD000012084E7264A022ED2F830223ED0032E6E
:102BE0003FD0012E14BFD2B2C2F30722120312F457
:102BF000702F7FF473AF1F4EF46E24F470442243A1
:102C0000F2661B4A022BD2F830222CD0032B2DD097
:102C1000012B14BFD2B2C2F30722120312F4702F99
:102C20007FF45CAF134CD4F8EC3023F470431343BF
:102C3000C4F8EC30636E884238BF084623F4FF7353
:102C4000E72823F0010328BFE720B5F5E16F18BF9F
:102C500043F0010343EA40036366B9E7C2F3074266
:102C6000C4E7120EC2E7C2F30742D6E7120ED4E75A
:102C70000081E00F00300E402F4B1A6FD96C11F01D
:102C8000010F02F0060242D0002A40D013284FD98B
:102C9000143813288CBF102308232749013BCA6C22
:102CA000180322F47F4240EA03231343CB64234BEF
:102CB000CA6C1B88C2F303222833013202EB820064
:102CC00003EB5303B3FBF0F3C86C013B072B28BFA6
:102CD000072320F0EE6040EA036343F48013CB64E3
:102CE000174BB3F90030002B10DB2833500800EBF2
:102CF000420203EB5303B3FBF2F30A6D072B28BF29
:102D0000072322F0700242EA03130B657047D96C67
:102D100001F00101114304D1092809D90A38092811
:102D2000B8E7DB6C13F00103B7D01AB92728B1E775
:102D30000423B2E70023B0E700300E40BC3C002083
:102D4000B83C0020064A074BD3F88039136F23F0B4
:102D5000070303431367044B1888FFF78DBF00BFB9
:102D600000300E400000C643BA3C0020394B02221E
:102D70002DE9F0419A639B6B03F00F0393420446E5
:102D800003D000252846BDE8F081C288B0F808804D
:102D90008588B0F90C6047784A2A4ED9B2F5FA7F97
:102DA0004DD340F6C3139A428CBF4FF040524FF0C0
:102DB00000522849CB6C23F0405323F00103002E2E
:102DC000A8BF43F001031343CB64D1F8EC3043F4C4
:102DD0004073C1F8EC30204B1D80CB6E43F0807304
:102DE000CB661E4BD3F8800900B10420FFF7AAFF81
:102DF0001B4BA3F800801B4B28461E80FFF73CFFAF
:102E0000A37BFBB1012B21D0012260881146FFF783
:102E100053FE05460028B4D00E4AD36B43F48063BA
:102E2000D3633846FFF7FCFDA37AA3F12002534297
:102E300053410A4AC2F89437A4E70022B9E74FF099
:102E40008052B6E7034B084A9A65DDE7014B074A13
:102E5000FAE700BF00300E40BA3C00200000C64335
:102E6000BC3C0020B83C002077402057372110B7E9
:102E7000044AD2F8443423F003030343C2F8443431
:102E8000704700BF00A00040072AF8B501F0030614
:102E900014461F464FF00F011FD8950000FA05F2A7
:102EA000A940154829F07CF80321144806FA05F2D8
:102EB000A94029F075F812499DF81830114A2144AB
:102EC00089000F60C1F880300123A340C2F8243488
:102ED0009DF81C30C1F80033F8BDA2F10805AD0023
:102EE00000FA05F2A940084829F05AF803210748DA
:102EF00006FA05F2A940DCE700A4004008A400405F
:102F00008020851000A0004004A400400CA40040D4
:102F100000EB4000F8B50D461F46040116463AB1D5
:102F2000154801238B402044C7B100F1C060036005
:102F3000072D4FF00F0114D8AB00104806FA03F22A
:102F40009940204429F02CF83EB90B4A0123AB40AC
:102F5000224477B102F1C0621360F8BD00F18060D5
:102F6000E5E7A5F108039B00054806FA03F299403E
:102F7000E7E702F18062EFE70CA0004004A0004008
:102F800008A00040084B4FF40072C3F88020BFF344
:102F90004F8FBFF36F8F054B0021D9664FF4AA40C6
:102FA0001962FEF7D9BE00BF00E100E000200E402C
:102FB000034B03449B0081F001011960704700BF7F
:102FC000A001F11010B5044601214FF4AA40FEF70C
:102FD000C3FEB4F8013022785BBA9BB243EA0263C5
:102FE0000B4A136000231362D36253634FF0004314
:102FF000D3664FF0FF339366064A4FF40071C2F870
:103000008011E3785B01DBB282F80933116010BDF7
:1030100000200E4000E100E0F8B5254D8F7AD1F890
:1030200000C0C3B201269E404FF0300ECB7A0EFB9B
:1030300000500C461B05097BAE6643EA0743C0F807
:1030400080C094F80DC0C0F888C043EA415322F014
:103050000302C0F88430C0F8982028F080FEEB6EA0
:103060003343EB66237A13B16B6B33436B63637A41
:1030700013B1EB6A3343EB6223792A6823B1DB4354
:103080001B0263F47F431A4063790BB142EA0322C7
:10309000A3790BB122EA0302E3791343044A1360D4
:1030A000044B9E62D663BDE8F84028F05EBE00BFC8
:1030B00000200E4000200E4410B5C0B20124844010
:1030C00028F04DFE054AD36E23EA0403D366044B71
:1030D0001C62BDE8104028F048BE00BF00200E4032
:1030E00000200E4410B5C0B20124844028F037FE01
:1030F000074B1A6A224208D19B6A9C430CBF0124E9
:10310000002428F032FE204610BD0024F9E700BF5D
:1031100000200E40054B5A685B68054B41F6713242
:103120001A649A6822F001029A60704700300E40DB
:1031300000000E40034B9A6822F001029A600022C0
:103140001A64704700000E40094A0A4BD969C90742
:1031500005D512B96FF002007047013AF6E7002A70
:10316000F8D001221861DA60D86940F38000704716
:103170008096980000000E4070B509B9002070BD1F
:103180000E4A0023082550F8234094610C4CD5606A
:103190000133D669F60705D514B96FF00200EEE7E2
:1031A000013CF6E7002CF8D0D469A40702D4994278
:1031B000E9D1E3E76FF00100E1E700BF00000E4056
:1031C000809698002DE9F8431C4B0D4641F671316D
:1031D0001E6C19641A49804648684968996841F02C
:1031E0000101B6B2996097084FF00009B94501D3C3
:1031F000002005E008EB89042046FFF7A5FF48B151
:103200000E4B9A6822F001029A600EB100221A64F5
:10321000BDE8F883C4F30A01C1F500618908A7EB92
:103220000903994228BF19462846FFF7A5FF002841
:10323000E6D1894405EB8105D8E700BF00000E40C8
:1032400000300E40234B41F671311A6C10B51964F1
:1032500021494C684968996841F001019960012150
:103260001861D960D9694C0792B209D5996821F0E3
:10327000010199600AB100221A644FF0FF3010BDBD
:103280000221D9601549D869C00700D569B9D86944
:1032900010F002000BD0996821F0010199600AB189
:1032A00000221A646FF00100E9E70139EBE741B948
:1032B000986820F00100986002B119646FF0020074
:1032C000DDE7996821F0010199600AB90020D6E78D
:1032D0001864FBE700000E4000300E408096980016
:1032E000014B01229A60704700500E40134B144965
:1032F000F0B500225D68134E1046D6F8E8714C68B0
:103300000B687F070BD4B3F5006F06D012D8B3F566
:10331000007F02D0B3F5806F01D144F480742B425A
:1033200002D02C4208BF18430132092A01F10801DA
:10333000E3D1F0BDB3F5803FEEE700BF00500E4093
:10334000448803000040E00F8B784A789B0143EAF1
:1033500082030A781343CA7843EA02130A7943EADC
:10336000C2234A7943EA02338A79043043EA42436A
:103370000001014A1350704700200440014B1860BF
:10338000704700BF00008442437882789B0043EA84
:10339000021302781343C27843EA4213027943EAE4
:1033A0000223427943EA0233827943EAC233C27983
:1033B00043EA0243027A43EA4243014A13607047F8
:1033C000002004400D4AD2F8E430D2F8E0109B000F
:1033D00003F03C03C1F381110B438370D2F8E0305A
:1033E00003F03F034370D2F8E830D2F8EC2003F04A
:1033F000F003C2F3031213430370704700FF0FE0A2
:10340000024BD3F8FC00000E704700BF0081E00FB4
:10341000044BD3F8E4301B0E0A3303F01F030120E2
:10342000984070470081E00F70B5054616461C466F
:1034300019B91448FEF7E2FD0146402C1BD003D811
:10344000DCB1202C1BD070BD602CFCD1042303FB0D
:1034500006F2530803EB4113B3FBF2F30A4A203B95
:1034600002EAC3032A6822F060022A602A68144331
:103470002C606B61E7E70623E9E71023E7E7082301
:10348000E5E700BF40410500F8FF7F0038B505467D
:10349000144619B90548FEF7B1FD0146013964002B
:1034A000B1FBF4F10902696138BD00BF404105007C
:1034B00040F6AA63C36041F2050200230360426044
:1034C000104A83604361C36482640F4A036690427A
:1034D00043678367C3670DD002F5806290420BD0CB
:1034E00002F58062904205D002F58062904203D0DE
:1034F000836570470365FBE7036583650023C36548
:10350000704700BFF9FF01000000014038B50446D4
:103510002DF03EFA0FCC044D0FC594E80F0085E85E
:103520000F00002038BD00BF5827002047F6FF736A
:103530009A42F0B572D0062972D83A4B5B5C022BE6
:103540006ED8394D05EBC304DF00A17815F8333090
:10355000012938BF0121012B13D1E0780025401A41
:10356000A84202D80844C0B2F0BD431BA0EB5303ED
:10357000666836F913609642CCBF03F1FF301D46F2
:10358000EEE760680028EFD0B0F90040944204DB19
:10359000B0F902409442B8BF14468388FF2B04BFA1
:1035A000B0F90620B0F908C03D440FBF012600263F
:1035B000C8224FF0280C131B93FBFCF333446E78A6
:1035C0001BB29E4201DD002B01DA731E1BB20133D8
:1035D0009BB24FF47A7C071D5D1E2DB24FEAC50EDB
:1035E00000EBC5059E42EA88AD6814FB025222EA50
:1035F000E27202F15C02B2FBFCF205DD37F83350F7
:10360000954203F10103E7D200EB0E039888904244
:1036100028BF1046884238BF0846A4E7FF20A3E72A
:103620000020A1E78C880300582700200629F0B568
:1036300061D8324B595C02295DD8314B13F8310007
:10364000012816D103EBC1039C78D8785B68012C64
:10365000214638BF0121904294BFC1EB0001C1EB6C
:103660000201CAB2001B8242C8BF002233F9120015
:10367000F0BD002A3DD003EBC103596800293AD0C0
:103680009878904202D3B1F90200F1E7DC78B1F901
:1036900000009442ECD95C788B88A3F1FF06013CD2
:1036A000734201F10405E4B2734101F10C07DEB28B
:1036B000B44216D805EBC3034FF47A75B3F9024050
:1036C0005B686A43D21A04EBD47302EB630292FB89
:1036D000F4F29042CCDBB1F902009042C8DC10B2A7
:1036E000C6E737F833C0944503F10106E2D3334609
:1036F000DDE70448BCE70448BAE700BF8C88030054
:10370000582700200CFEFFFF0080FFFF08B504488B
:10371000FFF7FCFEBDE8084001202DF05EB900BFB8
:10372000948803007FB5094B09490222CDE90123A2
:103730004FF08373CDE903134FF0FF300D2301A940
:1037400005932DF086F907B05DF804FB006A1800B8
:1037500006010C00024B03480122C3F80026704703
:103760000010C84300000F40094B98420ED003F5EB
:103770008063984209D10122064B03EBC2035A68C9
:10378000054B13449B0000221A6070470022F3E7A8
:1037900000000F40048A03008005F21010B50446B3
:1037A0002369DB07FCD404F1800028F025FB014BE2
:1037B000236510BD510545012DE9F043064689B04A
:1037C000174698460C4600294DD1FFF7C3FF014626
:1037D0000446304628F0EFFC4FF0010996F86C5093
:1037E00006F15C01C5F10F06C5F10E03F6B22A46DB
:1037F0000DF1010001358DF8003030F0FFFB32464D
:1038000000210DEB050030F0D3FBC6F110000123C1
:103810003246002168448DF80F3030F0C9FB28F0A3
:1038200093FA04F1800605466946304628F0E4FA2A
:103830000E4B23652369DB07FCD404A9304628F02E
:10384000F8FA284628F084FA424604A9384630F0AF
:10385000D5FBB9F1000F02D02046FFF785FF00200D
:1038600009B0BDE8F0834FF00009B7E7055101004A
:103870002DE9F04F89B00546DDF8489016461F4601
:103880000C4639BBFFF766FF01460446284628F080
:1038900092FC4FF0010B6B6C33446B6428F054FACC
:1038A0008246D6B9504628F053FABBF1000F0ED02D
:1038B00028F04AFA05F14C01064604F1840028F08C
:1038C000B8FA304628F044FA2046FFF74DFF09B019
:1038D000BDE8F08F4FF0000BDDE72B79102EB046DE
:1038E00028BF4FF01008012B0DD11022002168468F
:1038F00030F05EFB39464246684630F07FFB694651
:103900002046FFF74BFF394604F18C0028F074FA8B
:10391000124B2365012363652369DB07FCD404A9EB
:1039200004F1800028F085FA04A94246484630F0A8
:1039300065FB297961B91022684630F039FB4946A8
:103940004246684630F05AFB69462046FFF726FF9C
:10395000C1444744A6EB0806A3E700BF4805590346
:1039600070B5048804F4E043B3F5005F05461ED14A
:10397000C4F30223042B1AD181F0AA6383F4807369
:1039800033F47E13204821F47E1618D081F0AA6308
:1039900083F4007333F47E1311D0864230D1B4F532
:1039A000105F0CBF6FF086006FF0850070BDB4F53E
:1039B000105F25D1144B21F47E119942F1E7864224
:1039C0004FEA1143C1F305411AD1B4F5105F17D185
:1039D00004390C2911D813F001000ED1073A062A38
:1039E0000BD86B88C02B0BD0B3F5807FDED0802B3B
:1039F0000CBF00206FF08600D8E76FF08600D5E797
:103A00006FF08500D2E700BF000140052DE9F04FBF
:103A1000A7B0DDE93475DDF8D880DDF8EC900892C8
:103A200006461C468A4629B96FF08602104627B022
:103A3000BDE8F08F0028F7D0309B002BF4D0329BEC
:103A400013B9339B002BEFD1002F7DD1002DEBD18B
:103A5000389B002BE8D0B9F1000FE5D03A9B002B42
:103A6000E2D0399B002BDFD0338803F4E042B2F57B
:103A7000005F74D1C3F30222042A70D184F0AA63D8
:103A800083F4807333F47E1306D084F0AA6383F446
:103A9000007333F47E136BD1C4F30543319AC9F834
:103AA0000030214630460993FFF75AFF02460028AE
:103AB000BCD17288089BB3EBD20F4FEAD20BB3D3C1
:103AC000379B9D425FD83A9A099B93425BD8474502
:103AD00008D27B19984505D239462A46404630F02F
:103AE0004DFA4746702200210AA830F061FA5A4682
:103AF00051460DF12D00CDF850B030F07FFA234B38
:103B000024F47E149C423BD13388B3F5105F37D147
:103B1000D9F800300693399B0397CDE90483339B92
:103B20000293329B0193319B00932A46309B0121E3
:103B30000AA828F05BFC0246E0B9389B1D607021A2
:103B40000AA828F04BFC71E7002D81D0B8F1000FD6
:103B50003FF46AAF379B002B7FF47AAF64E742F201
:103B60000402934204D184F0052383F4801390E788
:103B7000002393E7389900230B60C9F80030DEE793
:103B80006FF08502DBE76FF089024FE70001400527
:103B90002DE9F04FABB0DDE938A4DDE93B6589469E
:103BA000099298460746002800F0A280002900F0FC
:103BB0009F80349B002B00F09B80369B1BB9379B6A
:103BC000002B40F09580BAF1000F02D1002C40F09C
:103BD0008F801DB93D9B002B40F08A803E9B002BBF
:103BE00000F086803A9B002B00F08280359A414697
:103BF0003846FFF7B5FE0246002866D17A88099B51
:103C0000B3EBD20F4FEAD20B72D33D9B9C4272D8DA
:103C1000AA4509D20AEB0402954205D25146224632
:103C2000284630F0ABF9AA46702200210EA830F0E9
:103C3000BFF95A4649460DF13D00CDF860B030F06D
:103C4000DDF92E4A28F47E1800219045CDE90A11AD
:103C5000CDE90C1149D13A88B2F5105F45D1379BB7
:103C60000293369B01930AAF359B00932246CDE920
:103C70000457349B0696CDF80CA00EA828F0B6FB8E
:103C80000246C8B93A9B384603EB060C90469C4561
:103C90001FD11EB13146384628F0A0FBB8F1000F05
:103CA00020D03E9A002313601CB12146284628F0FC
:103CB00095FB6FF0940204E01EB13146384628F0BF
:103CC0008DFB70210EA828F089FB10462BB0BDE8B3
:103CD000F08F10F8011B13F801EB81EA0E0148EA9E
:103CE0000108D4E73E9B1C60EBE76FF08502E8E734
:103CF0006FF08602E9E76FF08902E6E70001400510
:103D00002DE9F04F8FB09846DDF86CA004909346F3
:103D10000023B8F1000F16D0D8F800401029CDE9E3
:103D20000633CDE908330CBF082310230293002586
:103D30005D450AD3B8F1000F01D0C8F8004000205B
:103D40000FB0BDE8F08F4446E8E75CB1199B1A9AC2
:103D50001B5D525D013453400AF8053004F00F0436
:103D60000135E5E7FFF7F6FC4FF44043446003609C
:103D7000064627F0E9FF029A04990746304628F0E4
:103D80008DF806F1840318461899019328F034F849
:103D90003846ABEB050727F0DBFF27F00F0706F1EE
:103DA000A0032F440593AAF11009BD4234D11A9BF8
:103DB0003B440AAD03F1100C186859682A4603C247
:103DC000083363451546F7D10F2F0ED90AEB0703C9
:103DD00006AD103B0DF1280C2A4603CA6245186057
:103DE0005960154603F10803F6D106F180035744E4
:103DF0000AEB0B0903934F4536D127F0A5FF18991D
:103E00000546019828F015F8284627F0A1FF30460E
:103E1000FFF7AAFC5D468BE727F096FF224B039045
:103E200033653369DA07FCD41A9B0598591927F0D2
:103E3000E3FF0F2D0ED90DF1180C09EB05020DF162
:103E4000280E634603CB7345106051609C4602F117
:103E50000802F6D106A906F1800027F0EAFF0398D0
:103E600027F076FF1035A0E774B927F06DFF0E4BF1
:103E7000336505463369DB07FCD40398199927F0AD
:103E8000D8FF284627F064FF04F138030DEB030246
:103E9000199B12F8102C1B5D0134534007F8013BAD
:103EA00004F00F04A7E700BF480503012DE9F74F11
:103EB000DDF848A0DDE90E74DDE9106883461D4693
:103EC000894621B96FF0860003B0BDE8F08F002A63
:103ED000F8D00FB9002CF5D116B9B8F1000FF1D117
:103EE000BAF1000FEED02E4B9D4215D00BD82D4BC2
:103EF00025F4807199420FD003F580639D420BD069
:103F00006FF08500E0E7284B9D4205D025F4007155
:103F1000A3F580739942F2E7BBF80030B3F5105F68
:103F2000EED1BBF80230B2EBD30FE9D3802B02D035
:103F3000B3F5807FE4D124B3B7420AD23B199E4245
:103F400007D24445BED839462246304630F016F8EE
:103F50003746164BBBF802B09D424FEADB0BCFD180
:103F60004445AFD814F00F05ACD17319009301226A
:103F70007B195946484628F072FA30B91035AC42E0
:103F8000F3D8CAF8004000209EE7424600213046A0
:103F900030F00EF80023CAF800306FF0920093E77B
:103FA0000010C004004040040012C004004440045B
:103FB0002DE9F04F91B0DDE91A4ADDE91C56DDF834
:103FC000789007469B46884629B96FF08608404698
:103FD00011B0BDE8F08F002AF7D014B9BAF1000F84
:103FE000F3D10DB9002EF0D1B9F1000FEDD0574B40
:103FF0009B4515D00BD8564B2BF4807199420FD0AE
:1040000003F580639B450BD06FF08508DFE7514BCC
:104010009B4505D02BF40071A3F580739942F2E71C
:104020003B88B3F5105FEFD17B88B2EBD30FEBD3B6
:10403000802B02D0B3F5807FE6D1BAF1000F04D116
:10404000C9F800A04FF00008C1E7AC420BD204EB66
:104050000A039D4207D2B245B7D8214652462846A8
:104060002FF08CFF2C46394B7F889B454FEAD707B2
:1040700058D003F540739B4521D0374B9B45C3D1A6
:10408000B245A2D81AF00F0B9FD140463B4608AA72
:10409000394628F01EFA8046002898D105EB0B031C
:1040A0000093002204EB0B03394608A828F0D7F947
:1040B000804670BB0BF1100BDA45EFD8C0E7AAF1D0
:1040C0000D0AB2453FD801238DF810300DF11102D1
:1040D000234604F10C0153F8040B42F8040B8B4205
:1040E000F9D11B7813704FF48073ADF81E300D3486
:1040F00004ABCDE900334046CDE9024500235246EA
:104100003946FFF7FDFDC9F800A0804600283FF4BE
:104110005EAF3246002128462FF04AFF0023C9F83F
:10412000003054E7AAF1100AB2453FF64EAF04AA98
:1041300004F1100C20686168134603C30834644519
:104140001A46F7D1D4E76FF0890840E70010C004A1
:10415000004040040012C0040044400410B54FF475
:104160002F72044600212FF023FF8023C4F88C30E7
:10417000054BC4F88430012384F8883004F19C0096
:10418000BDE8104027F0DFBB148A030010B5D0F85B
:10419000A0400A4684B928F0A7FB044610B90024C1
:1041A000204610BD2D2896BF064B074953F8201016
:1041B000064828F0E0FCF3E7D0F8A4101046A0472A
:1041C000EDE700BFBC8A0300178A030067B0030055
:1041D000F8B590F88060044616B100263046F8BD68
:1041E00028F0B3F90028F8D1012384F8803094F83E
:1041F000883033B1D4F88410194884F8886028F0E6
:10420000BAFC4FF0FF37D4F8B402421C1CD0C4F8FB
:10421000B47210F0FF0520D0204628F093F929460B
:10422000204600F0AFFB0028EDD0204628F098F99A
:1042300094F888306BB1D4F88410094828F09BFCBE
:10424000002384F8883004E028F07AFC431CE0D195
:104250000126002384F88030C0E70126D3E700BFA1
:10426000FEAC0300F8B50B78302B04460D4616461D
:1042700004D14B7803F0DF03582B11D0284F6A1E6E
:1042800012F8011F002935D128460A2227F040F8EC
:10429000202C03460D4632D1B1FA81F040091BE0D3
:1042A0004A1C1F4912F8013F93B928462FF0B4FE6B
:1042B0001C4B2340032BA0F1020012D10134A410A7
:1042C00084420AD1A87837288CBF0020012003E05F
:1042D000CB5C13F04400E5D1F8BDCCBF0120002039
:1042E000FAE7002CB8BF0334B0EBA40FD4BF012011
:1042F0000020F1E77B5C13F00400C1D1ECE726B1AC
:10430000084302D0013B61F100050122A240013ABD
:104310001A40002D08BF9A420CBF01200020DBE7A5
:1043200025F7030003000080F0B503787B2B0146DE
:1043300017D10D4F06460224002216F8015F7D2D8D
:1043400005D10B5D6BB9D24302F0010008E07B5D43
:1043500013F0440002D001320134EEE7202DFBD0EF
:10436000F0BD0020FCE700BF25F7030070B506464E
:104370000D462FF051FE0446304628F0FCFB044E5B
:10438000AC4200D370BD304628F0F5FB0134F7E7AE
:1043900060A403002DE9F84F044602216048FFF7AE
:1043A000E5FF1E212068FFF7E1FF6368586828F0E9
:1043B000E2FB5C4828F0DFFB67683B7BFD2B12D8F3
:1043C000D7F80880DFF85891DFF8B4A1DFF870B1B2
:1043D00040462FF021FE0C3706464FF0FF3417F809
:1043E000013BFF2B01D1BDE8F88F212B14D8212BE5
:1043F00014D8DFE803F0178C8884807C787413135A
:10440000131313131313706C6864605C5854131304
:10441000131313131313504CFE2B34D006B1013475
:10442000414D02E006B10134404D02214846FFF7FC
:104430009DFF1E214846FFF799FF504628F09BFB41
:10444000594628462FF0D0FD3949002818BF294683
:10445000384828F090FB3B78202B02D12B2028F005
:104460007EFB354828F087FB4EB118F804301F2B2F
:1044700005D018F804001F2801D0B4424BDB2948AE
:1044800028F079FBABE706B101342C4DCDE706B13E
:1044900001342B4DC9E7002EA1D001349FE706B1AE
:1044A0000134284DC1E706B10134274DBDE706B1FF
:1044B0000134264DB9E706B10134254DB5E706B103
:1044C0000134244DB1E706B10134234DADE706B107
:1044D0000134224DA9E706B10134214DA5E706B10B
:1044E0000134204DA1E706B101341F4D9DE706B10F
:1044F00001341E4D99E706B101341D4D95E706B113
:1045000001341C4D91E706B101341B4D8DE706B116
:1045100001341A4D89E728F022FB0134A9E700BFD6
:10452000A37B0300DC8F0300818B03007B8B0300E4
:10453000D28B0300FEAC0300EF9E03000DBB030013
:10454000898B0300928B0300998B0300A48B0300DB
:10455000AE8B0300B88B0300A38B0300AD8B03006D
:10456000B78B0300C08B0300C48B0300CC8B03000C
:10457000758B03007C8B0300CB8B0300748B0300D3
:10458000BAB303002DE9F04F9BB005468B4600926D
:1045900004932FF041FD249F049B059000241C6090
:1045A0000AAA3C6009A9284628F006FB064658B925
:1045B0000A982FF031FD049B1860D5F89C300393C6
:1045C0003446B146039B1BB920461BB0BDE8F08FB3
:1045D000039B9B680193002B69D02E4416F8013B86
:1045E000202B12D000260C23019A734302EB030AFE
:1045F000D3580293002B55D0DDF82480C84551DBF9
:104600009AF808302BB1721C35E03B6801333B60EF
:10461000E4E73B68D5F894200299D21A049B1A600B
:104620001AAB03EB890353F8403C069318462FF06E
:10463000C7FC07900028E6D102982FF0EDFCDAF8CD
:104640000410079AD7F800A00346087BFE2816D16D
:1046500008F1FF38C8452ED00B68069802920193E6
:104660002FF0DAFC0AF10103029A0344E95C21B15C
:104670003B6009F101091646B5E70133F6E7D5F8C5
:104680009420A2EB0A029A42BDDC584606932FF012
:10469000C3FC069B03447B2B1DD91F4A0099584637
:1046A00027F078F9059A2B462A449A422AD1039B8F
:1046B0001B68039386E7D5F89420A2EB0A029A427E
:1046C000E3DDD1F8008058F80C2B82B9059B3B60E4
:1046D000049B1A60E6E7029A0099584627F05AF9B7
:1046E0000E4A00995846013427F054F98BE7009997
:1046F000584627F04FF9094A0099584627F04AF9D9
:104700000134E0E713F8011B0029CED14FF020015E
:1047100003F8011CC9E700BFD48B030060A40300A9
:104720002DE9F04786B0DDE90EA800241C6006469E
:1047300089468AF800401168154888F800401746F5
:104740001D468DF81740FCF7A3FD18B92B680133FF
:104750002B600124D6F89C60002036B914B10123E7
:1047600088F8003006B0BDE8F087B06868B14B4605
:10477000CDE902A8CDE900750DF11702002128F05E
:1047800052F89DF81730002BE8D13668E5E700BFF6
:10479000D98B03002DE9F0430026ADF5457D044695
:1047A0007C22314605A802AF04962FF001FC009749
:1047B00003AB802204A92046FFF7E4FE01283ED186
:1047C00004A82FF029FC03993B68A0EB01080B44D7
:1047D000234428EAE878054604A8014442461846DE
:1047E0002FF00CFC00F80860D4F89060039B396847
:1047F000D4F890201944B14212DCD4F89410E81A8D
:104800000244C4F89020014404AAC4F89410D418B7
:1048100025182B1B002B0DDC0DF5457DBDE8F08325
:10482000A05C28F09CF9D4F890300133C4F89030A3
:104830000136DBE714F8010B28F091F9E9E7EBDD2D
:1048400024AD8022314628462FF0B2FB44AB4FF412
:104850000072314618462FF0ABFB0DF110090346EC
:104860004A464FF00108314612F8016B002E49D13B
:1048700004A843F828102FF0CFFB2946334619F837
:10488000016B0DF5887C5CF8042B824243D1013327
:10489000984501F8016BF2DAD4F89060039BB342BB
:1048A00042DC364A3648234604A928F064F92846F3
:1048B0002FF0B2FB039B3F6806461F44F61AE0192F
:1048C0001D4426EAE67204F198031744984204EB6B
:1048D00007014ED204F1900399424AD96A1E811908
:1048E0000B1A002B39DD12F8013F00F8013BD4F818
:1048F00090300133C4F89030D4F894300133C4F8C8
:104900009430EDE7202E01F1010104BF43F8281097
:1049100008F10108A8E70DF1100E7244D25CB24212
:10492000B1D00022EA54B7E7D4F89030E05C28F028
:1049300016F9D4F890300133C4F890300136ADE761
:10494000D4F890200132C4F89020D4F89420013299
:10495000C4F89420013B002BF2DC0023E3552E44E5
:10496000731B002B7FF758AF15F8010B28F0F7F8F1
:10497000F6E729462FF042FB3346ECE7148A0300A2
:10498000DE8B03002DE9F843D0E9245604460F4698
:10499000002294F89830012B07D10A2F07D1002369
:1049A00084F898300020BDE8F88300F29F801B2F28
:1049B00001D10223F4E70D2F0DD1012384F89830A3
:1049C0000D2028F0CCF80A2028F0C9F80023C4E90B
:1049D00024330120E7E74FF00008082F84F898807F
:1049E00034D1454530DDB5420FD1384628F0B7F80F
:1049F000013D202028F0B3F8384628F0B0F804F83C
:104A00000580013EC4E92456CCE7FBDA05F1FF3905
:104A1000384628F0A4F804EB0903A6EB0902611953
:104A200018462FF0ABFA04F806800146484828F0F3
:104A3000A2F8013E35464D4501DC4D46E2E708202F
:104A400028F08DF8013DF6E7ACD0DBE77F2F1CD1D5
:104A5000002EA7DDB542A5DA6319691C2144721B3B
:104A600018462FF08BFA04F806800146394828F0E2
:104A700082F80820013E28F072F8B542F9D1D4F846
:104A80009430013BC4F894308CE70A2F98D0092F5A
:104A900003D12046FFF77EFE84E7D4F88C30013B3B
:104AA000B3427FF77FAFB54204EB050805F101097A
:104AB0000CDB88F80070D4F89430C4F8909001337F
:104AC000C4F89430384628F04AF86BE7721B414628
:104AD00004EB09002FF052FA404628F04CF8082069
:104AE000013E28F03CF8B542F9DDE2E7022B06D1A1
:104AF0005B2F01D1032353E784F8982049E7032B68
:104B00007FF450AF413F84F89820032F3FF64AAF1F
:104B1000DFE807F002070A160121204627F0D0FF40
:104B200040E74FF0FF31F8E7B542BFF63BAF605DBD
:104B300028F015F8D4F890300133C4F8903031E7FC
:104B4000002D7FF72FAF013DC4F890500820BAE741
:104B5000E78B0300D49F03007FB5094B6A4603F13E
:104B60001006154618685968144603C40833B34242
:104B70002246F7D12846FEF7F9F8002004B070BDB0
:104B8000EC8B030070B5184B86B001AA03F1100638
:104B9000154618685968144603C40833B3422246C0
:104BA000F7D11B882380114BD3F8B420120316D5FC
:104BB000A3F500434FF6FF721B88934208BF4FF4E2
:104BC000A6730B48ADF80A30FCF718FB2846FDF732
:104BD00085FC3220FDF7FAFA002006B070BDD3F84C
:104BE000B830C3F30803ECE7FC8B03000081E00F4F
:104BF00000F0490207B5084B18680190202301A86E
:104C00008DF80430FDF7AAFC3220FDF7D9FA002018
:104C100003B05DF804FB00BF0E8C030010B50C4818
:104C20000C4C6FF00403A02113F0800F03F101027C
:104C300007D12344332A83F800131346F4D100200C
:104C400010BD03F00F03043B034419761346EBE752
:104C500000ED00E000E100E010B5044627F074F834
:104C6000024B1C6027F074F8002010BD8027002044
:104C700010B527F069F8034B1C6827F069F8204647
:104C800010BD00BF8027002038B50C4615460146F0
:104C900010B9FFF7EDFF01462B46224603480AF004
:104CA000CFFF0028D4BF3720002038BD21CD02001F
:104CB00030B5144687B00546104628F063F863699E
:104CC00083423CBFD4E903315B181B1A02467BB117
:104CD0000F4903910021CDE9013101230494009390
:104CE000D4E90013284626F0DFFF002007B030BDCE
:104CF0000122627694F82D20002AF6D084F835300F
:104D00001321E36920469847636A20469847ECE7F9
:104D1000B14C00002DE9F04788B004460F46164616
:104D2000984627F01CF88146002E7BD0237E03F0A6
:104D3000FF02002B00F0A380204628F023F86569CD
:104D4000A84205D1637ED4E9033213445D1B01E020
:104D5000F9D9451BB54228BF354627F000F894F82D
:104D60002D308246002B6ED161692A4638462FF0DD
:104D700045F963692B4463612E4621E0037803F013
:104D8000FD0111295CD1216B814205D1A3F11101F3
:104D90004B424B4184F83430013E6369216B8B42B6
:104DA00003F1010308BF2363636101329542606927
:104DB000E4D1D4E90323216B1344994200D1226347
:104DC000D4E903236169207A134499424FF0000526
:104DD00008BF62616576FCF765FD204627F0D2FFCB
:104DE0006369834232D194F82D302576E568656198
:104DF00003B12563636A20469847224B039300233F
:104E0000049402932369019301230093636821684A
:104E1000207A2A4626F048FF207AFCF763FD5046A8
:104E200026F0A3FF4846C8F8006026F09EFFD8F899
:104E30000030002B0CBF1B20002008B0BDE8F0871D
:104E400007F8013BA9E72E460022AFE701232376AE
:104E5000207A0DF11E01FCF7ADFD9DF81E30002BF0
:104E6000DAD00DF11F01207AFCF77CFD9DF81F10B0
:104E70000029D1D1207A2246FFF71AFFCCE7164647
:104E8000D0E700BFB14C0000002807DB044A41090D
:104E9000012300F01F00834042F82130704700BF1B
:104EA00000E100E0002808DB4309044900F01F008E
:104EB00001226033824041F82320704700E100E086
:104EC00070B504460568FFF7D3FE844202D1002086
:104ED000FFF7C2FE95F936603046FFF7E3FF002E7C
:104EE0000CDB7309194906F01F0620330122B2407A
:104EF00041F82320BFF34F8FBFF36F8F95F93760D1
:104F00003046FFF7CFFF002E0CDB73090F4906F088
:104F10001F0620330122B24041F82320BFF34F8FF8
:104F2000BFF36F8F287AFCF7FDFC287AFCF75EFC54
:104F3000FCF73AFC0023C4E90033C4E90433A3605E
:104F40002846AB6ABDE87040184700BF00E100E0AA
:104F50002DE9F0430C461546064687B04022002155
:104F600020461F462FF024F8002395E803002A6905
:104F70002376EB68E360C4E904232A7D84F82C20BF
:104F8000AA7D2363012384F8343084F835300E9BE6
:104F9000236284E803000F9B6362109B84F82D203A
:104FA000E761A3622B7A84F836306B7A84F8373065
:104FB0002D4B73602D4BB3602D4B33612D4B346003
:104FC00073612D4BF360FCF737FC38B12B4B9842E3
:104FD00004D01024204607B0BDE8F083002104F17E
:104FE0000800FCF7B1FB07460028F2D1244B3362DE
:104FF0004FF00108234B84F83C80B361224BF361EE
:105000009DF8483084F83B309DF8443084F83A30BD
:10501000697D84F8390084F83880204627F0C3FE83
:1050200095F909904846FFF73DFF4846FFF72CFFEA
:10503000164B0494CDE902732369CDE900836368BC
:10504000E2682168207A26F02FFE04460028C0D1AD
:1050500095F908502846FFF725FF2846FFF714FF6B
:105060003046FFF7F9FDB5E7F7CD0200154D00001A
:1050700073CD020079CD0200C14E0000038000F024
:105080004DCD0200A7CD02007FCD0200B14C000043
:105090002DE9F04186B01C46524B0C9D0293524BB9
:1050A00001930126514B0093CDE90366504B904686
:1050B0000A462946FFF74CFF0746002856D12368C9
:1050C0002B6463686B64637A85F84930237A85F8CA
:1050D0004830E37A85F84B30A37A85F84A30637B11
:1050E00085F84D30237B85F84C30E37B85F84F30D5
:1050F000A37B85F84E303F483146FCF72DFE3E48F5
:105100003146FCF729FE617A207A33460422FDF706
:10511000FFFE33460222E17AA07AFDF7F9FE6068CD
:105120003146FCF719FE88F800704146206826F0E9
:10513000A7FF2268536F43F003035367936F617CAB
:1051400023F4F85323F01F0343EA0123A17C0B430C
:1051500093670323536785F8507098F81920202A25
:1051600028D007D8E2B1102A38D02327384606B015
:10517000BDE8F081302AF8D185F8503002220023B2
:10518000617B207BFDF7C4FE2368E27CDA675A6E00
:1051900042F004025A665A6F42F010025A6766B92A
:1051A0002A6C2068D36C43F00403D364052126F0F5
:1051B00060FFDBE7022385F85030E17BA07B002312
:1051C0000422FDF7A5FE2368217DDA6F42EA012261
:1051D000DA675A6F42F020025A67E1E733463E46EB
:1051E000CAE700BF23CF020017CF0200AFCF0200F3
:1051F000A3CF02004041050000350A0007B501F0C9
:1052000019FB6A4601F07CFB18B10448522100F0FA
:10521000DDFADDE9000103B05DF804FB128C030048
:1052200008B501F03BFA18B102487A2100F0CEFA35
:10523000002008BD128C030008B500F025FA0D4AC5
:10524000536A43F4E0235362EFF308830A4A043BB2
:105250004FF0CD31934209D2084B01221A61FFF77A
:10526000DFFFBDE808400648FEF750B943F80419CF
:10527000F0E700BF00ED00E00000002000300E402D
:105280004C89030007B504220DEB020100202BF02E
:105290005CFB042804D0054840F2671100F096FA40
:1052A000019800F0D9FB03B05DF804FB128C0300F9
:1052B00010B50A0A41400748C9B2082301F00104A9
:1052C000490804B14140013B13F0FF03F6D181EAE4
:1052D000020010BD2083B8ED2DE9F843134C144EA5
:1052E000DFF85480134FDFF85490002523780BB972
:1052F000BDE8F88356F8043B22464146002027F0DB
:1053000018FD227823460134002AFAD15B7853B184
:1053100005F00303032B0CBF39464946002027F054
:1053200008FD0135E2E73946F8E700BF7291030056
:1053300000100020DB8F0300588C03004BBC0300DF
:105340006B4B1B8840F6052293422DE9F0410ED8A5
:10535000B3F5206F0DD840F20252934218D040F2BC
:105360000172934220D040F2015293420AD0BDE82C
:10537000F081A3F602235F4C032B1ED8DFE803F075
:10538000376396B25C490020BDE8F04127F0D1BCFC
:105390005A49002027F0CDFC564B1A6C5849BDE8FD
:1053A000F041002027F0C5BC524A5649BDE8F04103
:1053B000D2E92423002027F0BCBC5349002027F069
:1053C000B8FC94F868309E0703D55049002027F0B8
:1053D000B0FC94F86B305D0603D54D49002027F0F2
:1053E000A8FC94F96B30002BC1DA4A49CBE74A4953
:1053F000002027F09EFC94F86430980704D0226CBB
:105400003F49002027F095FC94F96430002B04DA22
:10541000226F4249002027F08CFC414FDFF80C81BD
:1054200000250126626E06FA05F3134207D057F8ED
:10543000252013781BB14146002027F07AFC013566
:10544000082DEFD193E73749002027F072FC2C4953
:10545000226C002027F06DFC94F86530590703D5C5
:105460003149002027F065FC94F96530002B04DAFF
:10547000226F2A49002027F05CFC294E2B4F08257B
:10548000636EEB40DA0707D556F8252013781BB179
:105490003946002027F04DFC0135102DF0D194F84D
:1054A000640000287FF463AF21496DE721491C4E59
:1054B0001E4F002027F03DFC226C1149002027F0F0
:1054C00038FC1025636EEB40DB0707D556F8252026
:1054D00013781BB13946002027F02BFC01351A2D1B
:1054E000F0D144E71449002027F023FC226C55E753
:1054F000BE3C002000100020628C0300A08C030042
:10550000D18C0300EC8C0300088D0300218D030077
:105510005C8D0300908D0300CD8D0300F38D03009F
:10552000CC9803001A8E0300328E0300118E030004
:10553000798E0300AA8E0300C48E03002DE9F04F7C
:10554000424CD4E90D32D4E9121B580748BF00265B
:10555000D4F83CA05DBFD4F850803D4EDFF81C91DC
:10556000DFF81C915ABF8B469246B04613F0080FE5
:10557000384B394A394918BF1A46B6EB080718BFE5
:105580007D0885B01BBF642303FB0B553D46B5FB6F
:10559000F7F54B4618BFADB2CDE9016ACDF80080F2
:1055A0000020BFB227F0C5FBCDE900972C492B4660
:1055B0001FFA8BF2002027F0BCFBB24501D8C24590
:1055C00004D228494A46002027F0B3FBD4E9170348
:1055D000184338D02449254FDFF8A880002027F051
:1055E000A8FB00250126E26D06FA05F3134207D059
:1055F00057F8252013781BB14146002027F099FB6E
:105600000135202DEFD11A4FDFF8788000250126D3
:10561000226E06FA05F3134207D057F825201378B7
:105620001BB14146002027F084FB0135122DEFD13C
:105630001049002027F07DFB0E49002005B0BDE891
:10564000F04F27F076BB0C49F4E700BF00100020B4
:1056500000100020EB8E0300F28E0300FA8E030090
:105660002C8F0300668F0300858F030004980300CE
:1056700084980300DC8F0300B58F0300E68E0300DF
:1056800016BD0300FDAC030010B5FDF72FFE044668
:10569000FDF726FEE30721D401221046114600FA49
:1056A00001F3234002F101021AD0214B33F81130EB
:1056B0002049062B19D040F20722934212D14FF015
:1056C00000524FF20F00548884420BD11088984248
:1056D00008D14CF23C335380088010BD0021E4E730
:1056E000112ADBD1134A138012E04FF000534FF21E
:1056F0000F025888904218D11B88B3F5406F28BF1D
:105700004FF4C0630B804FF000534CF23C325A8090
:10571000084B1A8840F201739A4201BF064A074BB0
:10572000D2E90001C3E90001D7E74FF4C063E9E71C
:1057300050910300BE3C00209010002084270020E0
:10574000014B1888704700BFBE3C0020014B1888F1
:10575000000A7047BE3C0020044B05481B881A0A0B
:10576000B3F5406F38BF00EB82007047BE3C0020AD
:1057700020910300044B1888044B020AC0B253F86E
:10578000223003EB80007047BE3C0020F090030005
:1057900010B5044626F0DFFA4FF000534FF20F0227
:1057A0001C805A80BFF35F8FBFF34F8F0549064BB4
:1057B000CA6802F4E0621343CB60BFF34F8F00BFAF
:1057C000FDE700BF00ED00E00400FA0538B504462F
:1057D0000D462BF02EFE08492B462246002027F0CE
:1057E000A8FA27F087FC26F0B6FA29462046BDE83D
:1057F000384027F065BC00BFCB8F03006B4A6C4B71
:105800002DE9F04155685D65516A996569496A4CB1
:10581000D1F80002D865D1F804121966916A596668
:10582000D16A9966116BD966516B1967D26B586B47
:105830005A67D3E90E1210F0040F18BF11465F4AE1
:105840001A6500209142D8645DD301F12000A04286
:1058500059D888691864C5F30805CE695E64062DB9
:1058600055D1574DA84252D3564DA8424FD2058824
:105870004DF6426085424AD11868C3F890005868D6
:10588000C3F8940040F20170A242154605D22E687A
:10589000B6F1CD3F02F10402F6D00022C3E91E2288
:1058A000C3E92022C3E92222641BDFF814C1424D60
:1058B000DFF810E19C648D422CD8D3E91EC7D3E9F0
:1058C0002065D3E922414FF0000E013AD2B2FF2AFF
:1058D0003BD1BEF1000F05D0C3E91EC7C3E9206567
:1058E000C3E92241B3F85430C3F30803DA1E0F2A88
:1058F00052D8DFE802F03458414451515151514ED1
:105900005151515151380021C3E910112B494FF425
:105910002060B9E755F8044D6445CCD37445CAD22C
:10592000E607C8D5284F002657F8048FA045C2D0F7
:105930000136062EF8D132B1013AD2B202F11E067A
:1059400043F82640B7E70522F8E7E0464FF0010E9E
:10595000BC4637462E4625460C464146B5E740F63E
:105960000120BDE8F081194BDB6913F0020F40F212
:10597000025318BF1846F4E740F60320F1E740F25F
:10598000017240F60423B0F5206F14BF104618468C
:10599000E7E740F60520E4E7013B40F60722412B0C
:1059A00098BF1046DDE740F60220DAE700ED00E0A0
:1059B0000010002000E100E00010002000000020A6
:1059C0000C0100004040030074100020002005403E
:1059D00000F00CB800F00AB800F008B800F006B803
:1059E00000F004B800F002B800F000B872B61EF083
:1059F000080F09D01EF0040F0DD0DFF850E0AEE81C
:105A0000FF1F6FF002000CE0DFF840E0AEE8FF1F80
:105A10006FF00E0005E0DFF834E0AEE8FF1F6FF036
:105A200006006946EFF309828EE8070086460848BB
:105A3000084C854501D3A54501D384F30888FFF7B9
:105A4000DDFE84F30888FFF7A3FE000000100020AD
:105A5000400000200010002083B24BF6EF62002BC4
:105A600008BF1346044A000C13804FF6CE2308BF2C
:105A70001846024B188070479A1500209815002090
:105A80000B4BB3F900201888002AB8BF80F06200E1
:105A900042001A80074AB2F9001013880029BCBFDF
:105AA00083F4805383F00B035900118058407047F2
:105AB0009A1500209815002008B501F00DF960B185
:105AC0000A4B0344072B0DD8072B0BD8DFE803F054
:105AD0000C060A080A0A0A04C12008BDC320FCE714
